:020000040800F2
:1000000088030020990100089D0100089F01000855
:10001000A1010008A3010008A501000800000000DC
:10002000000000000000000000000000A701000820
:10003000A901000800000000AB010008AD010008A4
:10004000AF010008AF010008AF010008912C0008C3
:10005000AF010008AF010008AF010008E10B000884
:10006000630C0008AF010008AF010008AF010008F1
:10007000AF010008AF010008AF010008AF010008A0
:10008000AF010008AF010008AF010008AF01000890
:10009000AF010008AF010008AF010008050D00081E
:1000A000AF010008AF010008AF010008AF01000870
:1000B0000F18000841180008A1190008AF01000836
:1000C000AF010008AF010008AF010008AF01000850
:1000D000AF01000811330008AF010008AF010008AC
:1000E000AF010008AF010008AF01000800F002F8FE
:1000F00000F041F80AA090E8000C82448344AAF181
:100100000107DA4501D100F036F8AFF2090EBAE87E
:100110000F0013F0010F18BFFB1A43F0010318473B
:10012000784E0000984E0000103A24BF78C878C17D
:10013000FAD8520724BF30C830C144BF04680C60ED
:10014000704700000023002400250026103A28BF35
:1001500078C1FBD8520728BF30C148BF0B60704739
:10016000732903F08284002070471FB504F0E1FD7D
:100170001FBD10B510BD03F0B5FC1146FFF7F5FF2C
:1001800000F024F803F0D3FC03B4FFF7F2FF03BC44
:1001900002F0A4FF30BF000008480047FEE7FEE77A
:1001A000FEE7FEE7FEE7FEE7FEE7FEE7FEE7FEE727
:1001B00003480449024A044B70470000ED00000860
:1001C00088010020880300208801002010B5062047
:1001D00002F01CFF482002F09FFD4FF4E13148205F
:1001E00002F089FF41F61F4142F20F7001F0B8FAA8
:1001F00041F61F4142F20F7001F086F941F61F41AE
:10020000632001F0DBFA00F010FB01F0ADF801F023
:1002100062F802F019FB02F0C1FA002002490860FE
:1002200002F0EBF8002010BD8C812142FF4880696C
:1002300040F48060FD4988610846C06840F48060F1
:10024000C8600846C06820F48060C860F84800684C
:10025000F84900EA0100F849C1F80408F4480068C8
:10026000C1F804080846D0F8040820F48070C1F8EA
:1002700004080846D0F8080820F00200C1F8080871
:100280000846D0F8080820F46020C1F8080808469D
:10029000D0F8080840F46020C1F808080846D0F8F3
:1002A000080840F48010C1F808080846D0F808088B
:1002B00020F40060C1F808080846D0F82C0820F4A3
:1002C0007000C1F82C080846D0F82C084FF0000048
:1002D000C1F82C080846D0F8100820F03800C1F802
:1002E00010080846D0F8100840F03800C1F810088F
:1002F0000846D0F8080840F00100C1F80808084690
:10030000D0F8080840F00800C1F8080800BFCB4842
:10031000006810F0080FFAD1C848006840F00400E7
:10032000C549C1F8080800BFC448006810F0040FB0
:10033000FAD17047BD48806940F40070BB498861BC
:100340000846C06840F40070C8600846C06820F4E1
:100350000070C860BA480068B64900EA0100B649B2
:10036000C1F80404B6480068C1F804040846D0F88F
:10037000040420F48070C1F804040846D0F808048E
:1003800020F00200C1F808040846D0F8080420F460
:100390006020C1F808040846D0F8080440F4602042
:1003A000C1F808040846D0F8080440F48010C1F8E9
:1003B00008040846D0F8080420F40060C1F80804D6
:1003C0000846D0F82C0420F47000C1F82C0408462C
:1003D000D0F82C044FF00000C1F82C040846D0F8E7
:1003E000100420F00F00C1F810040846D0F81004E3
:1003F00040F00700C1F810040846D0F8080440F0A7
:100400000100C1F808040846D0F8080440F00800CC
:10041000C1F8080400BF8B48006810F0080FFAD13B
:100420008848006840F004008349C1F8080400BF10
:100430008448006810F0040FFAD1704700B57B487B
:10044000806940F00400794988617F48006820F0A5
:10045000FF007E49C1F800087448406820F440401D
:10046000724948600846406840F400404860FFF721
:1004700061FFFFF7DBFE00BD10B502460020012A38
:100480001DD1734B1B6803466B4CC4F834342346B0
:10049000D3F8343443EA0103C4F834342346D3F8A0
:1004A000083443F48003C4F8083400BF694B1B6868
:1004B00013F0020FFAD0684B1B6898B21FE0022AB3
:1004C0001DD1664B1B6823F01F035B4CC4F8343806
:1004D0002346D3F8343843EA0103C4F834382346BA
:1004E000D3F8083843F48003C4F8083800BF5C4BE5
:1004F0001B6813F0020FFAD05A4B1B6898B210BD5C
:100500002DE9F04F8BB00026574800880A904D48DF
:10051000006840F480004849C1F808044FF06400C6
:1005200002F02BFC4448D0F84C0450490880424863
:10053000D0F8080440F48000424908604FF064009D
:1005400002F01BFC3C48D0F84C0486B2304604F064
:1005500015FB814604F0A2F907464FF06632444B82
:1005600003F0A8FF044603F0FBFC4249086008467C
:10057000006804F093F94FF066323F4BCDE9060175
:1005800004F096F8CDE908013C493A48006804F0C7
:1005900009FB834604F082F90746DDE9082303F0EE
:1005A000CBFD81460022364B03F0C6FD044603F026
:1005B000D7FC3049086033492E48006804F0F2FA4D
:1005C0002E49019004F0F8F9029004F067F907460B
:1005D00003F010FB044603F0C3FC2B49039004F026
:1005E000EBF9834604F05AF9284A294BCDE9040176
:1005F00003F0E8FC02460B46CDE906010020254940
:1006000003F09AFD244A254BCDE9080104F05CF87B
:10061000814603F0A5FC174908600748D0F8080494
:1006200040F48000074908603AE0000000100240F2
:1006300004280140FFFFF00000200140082801408D
:10064000042401400824014000080140000001404A
:1006500034240140002401404C240140342801404E
:10066000002801404C280140080000200C00002018
:1006700066664A3F0000002066660A4000401C464D
:1006800000408F4000007A4400E07645649E227866
:10069000A5796B3F0000F03FC3F5285C8F127140D5
:1006A0004FF0640002F069FBFF48006886B23046F4
:1006B00003F0EDFE8146FD4AFD4B03F0F9FF4FF0DC
:1006C0003332FC4BCDE9080103F036FD074600222A
:1006D000F94B03F077FC044603F042FCF74908604D
:1006E000F748D0F8080440F48000F64908604FF05D
:1006F000640002F042FBF248D0F84C0486B2F248A3
:10070000068000884012F1490880084601880A984E
:10071000814203D0ED48008800F005FB0BB0BDE836
:10072000F08F2DE9F84F4FF0000AD346504604F001
:1007300025FA009004F0B2F880464FF06632E44BA0
:1007400003F0B8FE06460022E24B03F0F5FC044637
:1007500003F006FC83465846BDE8F88F2DE9F047C4
:1007600004460D46284604F0E9F9C0B20A2190FB80
:10077000F1F201FB1200C6B2D749284604F012FA82
:10078000814604F0DBF9C0B20A2190FBF1F201FBD3
:100790001200C7B2D149284604F004FA814604F099
:1007A000CDF9C0B20A2190FBF1F201FB120000F07A
:1007B000FF08012C15D13146002000F063FE012016
:1007C00002F0C0FA3946012000F035FE012002F0A7
:1007D000B9FA4146022000F02EFE012002F0B2FAE2
:1007E00016E0022C14D13146052000F04BFE01200A
:1007F00002F0A8FA3946062000F01DFE012002F0A2
:10080000A1FA4146072000F016FE012002F09AFAF4
:10081000BDE8F08730B505460A210120FFF72CFE20
:10082000641204F00704204630BDAD48806940F0F2
:100830001000AB498861AB48006820F47F00A949EB
:1008400008600846006820F00F000860A44840686F
:1008500020F44040A24948600846406840F4004007
:1008600048600846806940F4007088610846C068A6
:1008700040F40070C8600846C06820F40070C8608A
:1008800099480068994900EA01008D49C1F80404BB
:1008900095480068C1F804040846D0F8040440F400
:1008A0000000C1F804040846D0F8040420F4807065
:1008B000C1F804040846D0F8040440F02000C1F850
:1008C00004040846D0F8040440F40060C1F80404AD
:1008D00085480068C1F804040846D0F8080420F0F0
:1008E0000200C1F808040846D0F8080420F460208B
:1008F000C1F808040846D0F8080440F46020C1F8A4
:1009000008040846D0F8080440F48010C1F8080430
:100910000846D0F8080420F40060C1F8080408462E
:10092000D0F82C0420F47000C1F82C040846D0F84C
:100930002C0440F44010C1F82C040846D0F83404CC
:1009400040F00E00C1F834040846D0F8340440F4F6
:10095000F070C1F834040846D0F8340440F4804004
:10096000C1F834040846D0F8340440F4A020C1F89B
:1009700034045F4800685F4900EA01005049C1F84B
:100980000C040846D0F80C0440F00700C1F80C0431
:100990000846D0F80C0440F4E040C1F80C040846C6
:1009A000D0F80C0440F46030C1F80C040846D0F8CC
:1009B0000C0440F4E010C1F80C040846D0F8080418
:1009C00040F00100C1F808040846D0F8080440F0DF
:1009D0000800C1F8080400BF3A48006810F0080F8A
:1009E000FAD13848006840F004003549C1F80804DD
:1009F00000BF3448006810F0040FFAD17047014678
:100A0000002070472DE9F04F8DB000200B900A9028
:100A10000F20FFF7F4FF0B900B9804F0AFF880461F
:100A200003F03CFF06464FF06632334B03F042FDC5
:100A3000044603F095FA0A900A9803F02FFF064641
:100A40004FF06632224B03F033FECDE908012B490B
:100A50000A9804F0A7F8064603F020FF8046DDE977
:100A6000082303F069FB04460022254B03F064FBD6
:100A7000824603F075FA0A9022490A9804F092F827
:100A80001E49019003F098FF834603F007FF0646D6
:100A900003F0B0F8CDE9020103F062FA1A490590BB
:100AA00003F08AFF824631E04C240140E17A14AE23
:100AB00047E1F63F33331140000039400400002085
:100AC00000200140082401400A0000200800002006
:100AD00066660A400000B040000020410000C842A5
:100AE000001002400010014004240140FFFFF0000C
:100AF0000C240140F00FE0FF66664A3F00401C46B0
:100B000000408F4000007A4400E0764503F0C6FEC6
:100B1000284A294BCDE9060103F054FA044602465F
:100B20000B460020254903F007FB254A254BCDE95C
:100B3000080103F0C9FD804603F012FA0A900A98F2
:100B40000DB0BDE8F08F2DE9FC5F00200190009012
:100B50001020FFF754FF0190019803F098FC8046A5
:100B6000194A1A4B03F0A4FD06464FF03332184BD6
:100B700003F0E2FA04460022164B03F023FA824601
:100B800003F0EEF900900098BDE8FC9F30B50446F4
:100B9000002521460120FFF76FFC284630BD10B527
:100BA000FFF730FF0C4908600A20FFF733FE0B49BE
:100BB000088010BD649E2278A5796B3F0000F03F4D
:100BC000C3F5285C8F127140E17A14AE47E1F63F1D
:100BD000333311400000394000000020080000209D
:100BE00010B50A2002F0AEF8F948006888BBF94851
:100BF00090F90000012804D002280AD003282AD145
:100C000028E0F5480078012800D100E000BF00BFCF
:100C100022E0F148007802280CD1F0480078012841
:100C200008D10020EE490870EE490870EE490870BE
:100C3000EA490870E8480078032809D1EB480078B1
:100C400030B90020EA490870EA490870EA4908709A
:100C500002E002E000E000BF00BF0220E7490860B8
:100C600010BD10B50A2002F06DF8E548006888BB99
:100C7000D84890F90000012804D002280AD003289F
:100C80003AD138E0D4480078012800D100E000BF14
:100C900000BF32E0D048007802281FD1CF4800784A
:100CA000012812D1CE4890F90000D6490870CD48ED
:100CB00090F90000D4490870CB4890F90000D3495E
:100CC00008700020C549087008E0D148007810B9C4
:100CD000012001E012E00020CD490870BE480078F4
:100CE000032807D1C148007808B9012000E000209E
:100CF000BE49087001E000E000BF00BF0420BF490A
:100D0000086010BD10B51E2002F01CF8C148006834
:100D1000012804D1C0480088401CBF490880202019
:100D2000B649086010BD062873D2DFE800F0035C06
:100D300099F1F0EFA7490978022918D1A649097855
:100D4000022914D10121A54A11700021B34A117062
:100D5000AC4991F90010A24A1170AB4991F9001009
:100D6000A04A1170A94991F900109F4A1170994940
:100D70000978022936D198490978032932D19C494A
:100D8000097829B99B49097811B99B49097849B370
:100D9000974991F90010A24A92F9002002EB420211
:100DA000A04B9954934991F900109D4A92F9002063
:100DB00002EB42021A4451708F4991F90010984A8F
:100DC00092F9002002EB42021A449170944909788A
:100DD000491C49B2924A117011460978052901D17E
:100DE0000021117075E27D490978012912D17949F4
:100DF0000978022933D17849097802292FD1874906
:100E0000097800292BDD85490978491E834A11702C
:100E100025E05DE26F490978022910D16E49097811
:100E200003290CD180490978491C49B27E4A1170C6
:100E300011460978062912D1002111700FE0654989
:100E40000978491C49B2634A11700121624A117044
:100E500060490978052902D100215E4A117038E203
:100E60005E49097801297ED15A49097802297BD146
:100E700059490978022977D168490978082974D233
:100E8000DFE801F0041B2C2D4758597D564909789D
:100E9000491E49B2544A1170114691F900100A22B4
:100EA00091FBF2F302FB1311092905D14E49097890
:100EB0000A3149B24C4A117070E04B4909780A393D
:100EC00049B2494A1170114691F90010002904DA1B
:100ED000114609783C3149B211705FE05EE041494A
:100EE0000978491E49B23F4A1170114691F9001024
:100EF0000A2291FBF2F302FB1311092905D13949AA
:100F000009780A3149B2374A117047E0FDE0BEE086
:100F1000B7E0344909780A3949B2324A11701146AA
:100F200091F90010002904DA114609783C3149B2E0
:100F3000117033E032E02A490978491E49B2284A43
:100F4000117011460978132904D111460978091D39
:100F500049B21170224991F900100A2291FBF2F373
:100F600002FB131102E01AE08AE016E0092905D11C
:100F70001B4909780A3149B2194A11700EE0184923
:100F800009780A3949B2164A1170114691F90010D0
:100F9000002901DA0021117000E000BF70E00E4965
:100FA0000978491C49B20C4A11700A4991F900109C
:100FB000062963D2DFE801F0033A424A525A064951
:100FC0000978032902D10021034A117057E000007B
:100FD000040122421A0000201B0000201D000020F6
:100FE000490000204A0000204B000020540000204F
:100FF000430000204400002045000020140401406C
:10100000080122424600002047000020480000203E
:101010004C00002014812142160000201E000020F8
:1010200014000020AC0000201C000020C4490978F6
:10103000042902D10021C24A117020E0C049097878
:10104000042902D10021BE4A117018E0BC49097878
:10105000032902D10021BA4A117010E0B849097879
:10106000032902D10021B64A117008E0B449097879
:10107000032902D10021B24A117000E000BF00BF75
:1010800027E10121AF4A1170AD4A117021E1AE494B
:101090000978012911D1AB490978022934D1A8492D
:1010A0000978022930D1A949097807292CDAA749FA
:1010B0000978491CA54A117026E0A249097802293D
:1010C00011D19F49097803290DD1A1490978491EF9
:1010D00049B29F4A1170114691F90010002913DAA4
:1010E0000521117010E097490978491E49B2954AC7
:1010F00011700121924A1170924991F90010491C16
:1011000002D104218F4A1170E3E08F490978012947
:101110007ED18C49097802297BD189490978022935
:1011200077D18A490978082974D2DFE801F0041AD6
:101130002B2C4253547887490978491C49B2854A77
:101140001170114691F900100A2291FBF2F302FB93
:10115000131129B97F4909780A3949B27D4A1170BA
:101160006CE07C4909780A3149B27A4A117011461B
:1011700091F900103C2904DD114609783C3949B247
:1011800011705BE05AE074490978491C49B2724A0F
:101190001170114691F900100A2291FBF2F302FB43
:1011A000131129B96C4909780A3949B26A4A117090
:1011B00044E0694909780A3149B2674A1170114619
:1011C00091F900103C2904DD114609783C3949B2F7
:1011D000117033E032E061490978491C49B25F4A35
:1011E0001170114691F90010172904DD1146097894
:1011F000091F49B21170594991F900100A2291FB57
:10120000F2F302FB131149B9544909780A3902E093
:1012100015E05CE011E049B2504A11700EE04F4910
:1012200009780A3149B24D4A1170114691F90010FE
:10123000172901DD1721117000E000BF47E0404988
:101240000978491E49B23E4A11703E4991F9001091
:1012500006293AD2DFE801F0030C151E2730384981
:1012600091F90010491C02D10221354A11702DE07C
:10127000334991F90010491C02D10321304A117001
:1012800024E02F4991F90010491C02D103212C4A76
:1012900011701BE02A4991F90010491C02D102216A
:1012A000274A117012E0264991F90010491C02D119
:1012B0000221234A117009E0214991F90010491CCB
:1012C00002D102211E4A117000E000BF00BF00E001
:1012D00000BF00BF704710B52148806940F0100082
:1012E0001F4988611F48006820F47F601D4908601D
:1012F0000846006840F40860086001221146022098
:1013000001F0C2FD01220221084601F0BDFD0122CB
:101310000521104601F0B8FD0223072201211846DD
:1013200001F065FD022308220021184601F05FFD4F
:10133000022317221946184601F059FD10BD00007E
:101340001B0000201A0000201D0000201E000020AD
:101350001C0000204B0000204A0000204900002013
:1013600000100240001001405A48806940F001001E
:10137000584988610846806940F00800886108463D
:10138000806940F0400088615348406840F0007038
:1013900051494860514800686FF30F00C1F8000CD4
:1013A0004E48006843F2333140EA01004A49C1F82F
:1013B000000C0846D0F80C0C40F0FF00C1F80C0CF3
:1013C0004748D0F804084FF000004549C1F8040828
:1013D0000846D0F8040840F03330C1F8040841480A
:1013E0000068C1F80C08704700F001013E4A116026
:1013F000C0F340013D4AC2F8A411C0F380013C4A49
:101400001160C0F3C00102F104021160C0F30011C9
:1014100002F104021160C0F3401102F104021160F4
:10142000C0F3801102F1040211604FEAD0112F4A7B
:10143000C2F8BC11704730B503460C46184603EBA2
:10144000D3714910A3EB41012A4A1160194603EBFD
:10145000D3724FEA620000EBD0724FEA6202A0EB57
:101460004202254DC5F8842118464FEAE37103EB8B
:1014700091714FEAA101214A11602149085DFFF7EE
:10148000B3FF30BD30B503460C46184603EBD371AD
:101490004910A3EB4101174A1160194603EBD372BF
:1014A0004FEA620000EBD0724FEA6202A0EB420208
:1014B000114DC5F8842118464FEAE37103EB917191
:1014C0004FEAA1010D4A11600E49085DFFF78CFF3C
:1014D00030BD00000010024000000140000C01403F
:1014E000001001400C180140A001234200002342DB
:1014F000A80123428081214200802142888121422B
:10150000220000203400002070B504460D46FE483D
:10151000C06940F00200FC49C861FC4804804FF0FB
:101520008040A0F82854B0F80C0440F001004FF0BF
:101530008041A1F80C040846B0F8000440F0010016
:10154000A1F800044FF002034FF01D024FF0030119
:101550004FF0010001F04BFC70BDF0B503460C46A6
:101560001546642093FBF0F0C6B2642093FBF0F7BD
:1015700000FB1730C1B2132E02DD01F16400C1B2CD
:101580000846CF1701EB977701EBA702072092FBE4
:10159000F0F700FB172082B25719601EDFF870C306
:1015A0001CF80000384482B2CF1701EB9777BF10C8
:1015B000B1EB870703D1032C01DA501E82B207205A
:1015C00092FBF0F700FB1720C0B2F0BD2DE9F0410F
:1015D00006460027002400253746CE48B7FBF0F426
:1015E000CD480088A0423AD0CB490C8040F2B27579
:1015F0000EE0284601F083F930B1B4F5B77F02D38D
:10160000A4F5B77402E006E0A4F26D14681C85B27C
:10161000B4F5B67FEDD800BFC0480580002516E0C0
:10162000BE49088801F06BF930B1012D04D11D2CA1
:1016300001D31D3C09E00CE0B948405DA04203D84D
:10164000B748405D241A00E003E0681C85B21C2CFA
:10165000E6D200BF681CB1494880601C4860AD48B4
:10166000B7FBF0F100FB11744FF46160B4FBF0F0D4
:10167000AA4988604FF46160B4FBF0F100FB1140AF
:101680003C21B0FBF1F0A549C8604FF46160B4FBA8
:10169000F0F100FB11403C21B0FBF1F201FB120024
:1016A0009E4908610B465B68DAB20B465B88D9B28B
:1016B0009A4B1888FFF751FF984908750020BDE83C
:1016C000F0812DE9F05F06460F4690469946DDE928
:1016D0000AAB002440F2B270864203DB40F63300CE
:1016E000864202DD0120BDE8F09F40F2B2750AE0BB
:1016F000284601F004F910B18A48044401E08A4800
:101700000444681C85B2B542F2DB781EC7B20025DE
:1017100010E08348405D40F2A321484304EBC0142D
:10172000304601F0ECF818B1012D01D1794804449C
:10173000681C85B2BD42ECDBA8F1010040F2A32198
:10174000484304EBC014C9EB4910C0EB092004EB7B
:101750000014CAEB0A1004EB80045C442046C2E784
:101760007CB504460D4616232522CDE9002313231C
:101770001B22042140F2E670FFF7A3FF6B490860CB
:1017800008460068FFF722FF5F48C06940F001008B
:101790005D49C861880484850585808940F0010021
:1017A000890488810846008840F0010008800223EF
:1017B0001C220321012001F01AFB7CBD70B50446F8
:1017C0000D465148C06940F004004F49C86158486F
:1017D00004804FF08040A0F82858B0F80C0840F082
:1017E00001004FF08041A1F80C080846B0F800084D
:1017F00040F00100A1F800084FF002034FF01E0274
:101800004FF003014FF0010001F0F1FA70BD10B587
:101810004FF08040008A10F0010F08D04348006864
:10182000401C4249086008460068FFF7CFFE4FF0B1
:101830008040008A20F001004FF08041088210BDF6
:1018400010B53C48008810F0010F26D03A480078C7
:10185000401C40B238490870084690F900003B2807
:101860001BDD0020087035480078401C40B2334929
:101870000870084690F900003B280EDD0020087033
:101880002F480078401C40B22D490870084690F956
:101890000000172801DD002008702648008810F09D
:1018A000010F74D027480078012870D126480078AD
:1018B000401E40B224490870084690F900000028F4
:1018C00052DA2248007810B921480078D8B120486F
:1018D000007848B93B201C4908701C480078401E1D
:1018E00040B21A4908703FE01848007890BB184889
:1018F0000078401E40B2164908703B20134908701A
:101900001149087030E02FE0001002402C04004024
:101910003E4F0008805101004E000020940000203E
:101920004A4F00080085E2018033E10150000020A9
:101930002C0800401004004042000020410000201C
:10194000400000204C0000204800002047000020FC
:1019500046000020FFE730480078401E40B22E4984
:1019600008703B202D4908702C4890F90000002891
:101970000DDA2948007850B92948007838B9002094
:101980002649087027490870032000F01CFF2648EC
:10199000008820F001004FF08041A1F8100410BD34
:1019A0002248008810F0010F2DD02148007801282E
:1019B00029D12048007830BB1F480078401C40B235
:1019C0001D490870084690F9000063281BDD0020BF
:1019D00008701A480078401C40B218490870084640
:1019E00090F900003B280EDD0020087014480078B4
:1019F000401C40B212490870084690F900003B288C
:101A000001DD002008700948008820F001004FF037
:101A10008041A1F8100870474700002048000020CE
:101A2000460000204C000020100400401008004038
:101A3000540000201C00002043000020440000202F
:101A40004500002010B50020FF490860FF4880686D
:101A50004FF00A01B0FBF1F0C4B221464FF0000094
:101A6000FFF7E9FC012001F06DF9F84880680A21D0
:101A7000B0FBF1F201FB1200C4B221460120FFF7D6
:101A8000DAFC012001F05EF910210220FFF7D3FCFF
:101A9000012001F057F9ED48C0680A21B0FBF1F0D0
:101AA000C4B221460320FFF7C6FC012001F04AF929
:101AB000E648C0680A21B0FBF1F201FB1200C4B293
:101AC00021460420FFF7B7FC012001F03BF910216B
:101AD0000520FFF7B0FC012001F034F9DB48006974
:101AE0000A21B0FBF1F0C4B221460620FFF7A3FCA7
:101AF000012001F027F9D54800690A21B0FBF1F275
:101B000001FB1200C4B221460720FFF794FC01201C
:101B100001F018F910BD70B505460C460020CA4901
:101B20000860E9B2FFF787FC012001F00BF94FF4E0
:101B30007A7094FBF0F0C6B231460420FFF77BFCCC
:101B4000012001F0FFF84FF47A7094FBF0F100FBF4
:101B50001140642190FBF1F0C6B231460520FFF739
:101B60006AFC012001F0EEF8642094FBF0F100FB28
:101B700011400A2190FBF1F0C6B231460620FFF772
:101B80005AFC012001F0DEF80A2094FBF0F100FB82
:101B90001140C6B231460720FFF74DFC012001F08D
:101BA000D1F870BD10B504460020A7490860A848C8
:101BB0000078C1B24FF00000FFF73DFC012001F0BA
:101BC000C1F811210120FFF736FC012001F0BAF81D
:101BD00011210220FFF72FFC012001F0B3F81121A1
:101BE0000320FFF728FC012001F0ACF811210420AC
:101BF000FFF721FC012001F0A5F811210520FFF7D6
:101C00001AFC012001F09EF811210620FFF713FCB9
:101C1000012001F097F8E1B20720FFF70CFC01204A
:101C200001F090F810BD10B501208749086088497F
:101C30000A784FF0800141FA02F1C8B2FFF7D4FBF5
:101C4000022001F07FF810BD70B5044600207E49E7
:101C500008604FF47A7094FBF0F0C5B229464FF05B
:101C60000400FFF7E8FB012001F06CF84FF47A70F4
:101C700094FBF0F100FB1140642190FBF1F0C5B240
:101C800029460520FFF7D7FB012001F05BF864200F
:101C900094FBF0F100FB11400A2190FBF1F0C5B27A
:101CA00029460620FFF7C7FB012001F04BF80A2068
:101CB00094FBF0F100FB1140C5B229460720FFF765
:101CC000BAFB012001F03EF870BD70B5044600205B
:101CD0005D4908605F49204602F06EFE064602F04C
:101CE0002DFFC5B229460020FFF7A5FB012001F01A
:101CF00029F8204602F022FFC0B20A2190FBF1F23F
:101D000001FB1200C5B229460120FFF7BBFB0120F1
:101D100001F018F84F49204602F044FF064602F051
:101D20000DFFC0B20A2190FBF1F201FB1200C5B217
:101D300029460220FFF77FFB012001F003F870BD68
:101D40002DE9F04104460D46164600203E49086044
:101D50004FF00A0096FBF0F0C7B239464FF0000092
:101D6000FFF769FB012000F0EDFF0A2096FBF0F180
:101D700000FB1160C7B239460120FFF75CFB012070
:101D800000F0E0FF10210220FFF755FB012000F0DA
:101D9000D9FF0A2095FBF0F0C7B239460320FFF7C0
:101DA0004AFB012000F0CEFF0A2095FBF0F100FB7A
:101DB0001150C7B239460420FFF73DFB012000F067
:101DC000C1FF10210520FFF736FB012000F0BAFF0C
:101DD0000A2094FBF0F0C7B239460620FFF72BFB30
:101DE000012000F0AFFF0A2094FBF0F100FB11404E
:101DF000C7B239460720FFF71EFB012000F0A2FF03
:101E0000BDE8F08110B501200F49086012490A7839
:101E10004FF0200141FA02F1C8B2FFF7E5FA0220C3
:101E200000F090FF10BD2DE9F04704460D46164620
:101E30001F46DDF820800948007801287ED1002067
:101E40000149086006480DE08C8121429400002081
:101E50001A000020000020411C0000201D0000206E
:101E60001E000020007807280ED0FF4890F90000DF
:101E70000A2190FBF1F000F0FF0949460020FFF72E
:101E8000DAFA012000F05EFFF8480078062810D04A
:101E9000F54890F900000A2190FBF1F201FB1200D5
:101EA00000F0FF0949460120FFF7C5FA012000F0C4
:101EB00049FF10210220FFF7BEFA012000F042FF87
:101EC000EA48007804280ED0E94890F900000A2179
:101ED00090FBF1F000F0FF0949460320FFF7ABFA51
:101EE000012000F02FFFE1480078032810D0E048DF
:101EF00090F900000A2190FBF1F201FB120000F0C2
:101F0000FF0949460420FFF796FA012000F01AFF66
:101F100010210520FFF78FFA012000F013FFD348AE
:101F20000078012810D0D34890F900000A2190FBD6
:101F3000F1F000F0FF094946062000E058E0FFF705
:101F40007AFA012000F0FEFEC848007880B1C94846
:101F500090F900000A2190FBF1F201FB120000F061
:101F6000FF0949460720FFF766FA012000F0EAFE64
:101F70000F2F3CDD1E2F3ADCBC480078082835D2F4
:101F8000DFE800F0040C34141C34242C41460720F4
:101F9000FFF751FA012000F0D5FE28E04146062067
:101FA000FFF749FA012000F0CDFE20E04146042071
:101FB000FFF741FA012000F0C5FE18E0414603207A
:101FC000FFF739FA012000F0BDFE10E04146012084
:101FD000FFF731FA012000F0B5FE08E0414600208D
:101FE000FFF729FA012000F0ADFE00E000BF60E03D
:101FF0000020A14908604FF00A0094FBF0F000F0C7
:10200000FF0949464FF00000FFF715FA012000F0E4
:1020100099FE0A2094FBF0F100FB114000F0FF094B
:1020200049460120FFF707FA012000F08BFE10213E
:102030000220FFF700FA012000F084FE0A2095FB41
:10204000F0F000F0FF0949460320FFF7F4F9012002
:1020500000F078FE0A2095FBF0F100FB115000F033
:10206000FF0949460420FFF7E6F9012000F06AFE67
:1020700010210520FFF7DFF9012000F063FE0A20A0
:1020800096FBF0F000F0FF0949460620FFF7D3F970
:10209000012000F057FE0A2096FBF0F100FB1160D2
:1020A00000F0FF0949460720FFF7C5F9012000F0BD
:1020B00049FEBDE8F08710B500206F4908606F4801
:1020C00040884FF00A0190FBF1F0C4B221464FF076
:1020D0000000FFF7B0F9012000F034FE67484088A7
:1020E0000A2190FBF1F201FB1200C4B2214601204B
:1020F000FFF7A1F9012000F025FE10210220FFF7D3
:102100009AF9012000F01EFE5C4840680A21B0FBED
:10211000F1F0C4B221460320FFF78DF9012000F051
:1021200011FE564840680A21B0FBF1F201FB120093
:10213000C4B221460420FFF77EF9012000F002FE20
:1021400011210520FFF777F9012000F0FBFD112197
:102150000620FFF770F9012000F0F4FD4748017DEB
:102160000720FFF768F9012000F0ECFD10BD10B565
:10217000002041490860414800884FF47A7190FB83
:10218000F1F0C4B221464FF00000FFF754F90120EE
:1021900000F0D8FD394800884FF47A7190FBF1F2D5
:1021A00001FB1200642190FBF1F0C4B22146012032
:1021B000FFF741F9012000F0C5FD30480088642197
:1021C00090FBF1F201FB12000A2190FBF1F0C4B286
:1021D00021460220FFF72FF9012000F0B3FD274828
:1021E00000880A2190FBF1F201FB1200C4B22146E3
:1021F0000320FFF720F9012000F0A4FD1F484088CC
:102200000A2190FBF1F0C4B221460420FFF713F934
:10221000012000F097FD194840880A2190FBF1F257
:1022200001FB1200C4B221460520FFF704F901208A
:1022300000F088FD114840680A21B0FBF1F0C4B2FB
:1022400021460620FFF7F7F8012000F07BFD0B4840
:1022500040680A21B0FBF1F201FB1200C4B2214632
:102260000720FFF7E8F80BE0490000201E000020DF
:102270004A0000204B0000208C8121429400002065
:10228000012000F05FFD10BD70B50546C5EBC5002F
:1022900084000020FB490860FB4894FBF0F0C6B2C4
:1022A00031464FF00200FFF7C6F8012000F04AFD6A
:1022B000F54894FBF0F100FB114042F2107190FBE5
:1022C000F1F0C6B231460320FFF7B5F8012000F067
:1022D00039FD42F2107094FBF0F100FB11404FF415
:1022E0007A7190FBF1F0C6B231460420FFF7A3F8F3
:1022F000012000F027FD4FF47A7094FBF0F100FB11
:102300001140642190FBF1F0C6B231460520FFF781
:1023100092F8012000F016FD642094FBF0F100FB20
:1023200011400A2190FBF1F0C6B231460620FFF7BA
:1023300082F8012000F006FD0A2094FBF0F100FB7A
:102340001140C6B231460720FFF775F8012000F0B2
:10235000F9FC70BD70B504460020CA49086042F21D
:10236000107094FBF0F0C5B229464FF00300FFF760
:1023700062F8012000F0E6FC42F2107094FBF0F1EC
:1023800000FB11404FF47A7190FBF1F0C5B2294681
:102390000420FFF750F8012000F0D4FC4FF47A70CD
:1023A00094FBF0F100FB1140642190FBF1F0C5B209
:1023B00029460520FFF73FF8012000F0C3FC642008
:1023C00094FBF0F100FB11400A2190FBF1F0C5B243
:1023D00029460620FFF72FF8012000F0B3FC0A2061
:1023E00094FBF0F100FB1140C5B229460720FFF72E
:1023F00022F8012000F0A6FC70BD08B500260025DB
:102400001124FEF77DF8BBE1701CC6B20A2E02DD76
:10241000FEF776F800269D4890F90000052190FB14
:10242000F1F201FB1200062876D2DFE800F0032467
:1024300047F8F7F6FFF7F7FB954890F900000321FE
:1024400090FBF1F201FB120020B1012806D0022816
:102450000ED108E00320FFF7A5FB0AE08D480088B5
:10246000FFF778FF05E08B480088FFF70DFF00E0DD
:1024700000BF00BF83E1FFF7D6FB854991F900005B
:10248000C11700EB91718910B0EB810106D00129D1
:1024900008D0022909D003290DD109E00420FFF753
:1024A00081FB09E0FFF7CEFA06E0FFF760FE03E0EC
:1024B000FFF701FE00E000BF00BF60E1FFF7B3FBE4
:1024C000734991F90000C11700EB91718910B0EBCD
:1024D000810106D0012908D0022914D0032970D126
:1024E00083E00420FFF75EFBF9E02B466A48009486
:1024F00090F90020694890F90010694890F90000AF
:10250000FFF791FCEBE0681C85B20F2D5CD16548AC
:102510000078082856D200E030E1DFE800F004122D
:10252000531E2C533846112C08D15F4890F90000F7
:102530000A2190FBF1F201FB120000E01120C4B26D
:1025400041E0112C06D1584890F900000A2190FB77
:10255000F1F000E01120C4B235E0112C08D153484D
:1025600090F900000A2190FBF1F201FB120000E05B
:102570001120C4B227E0112C06D14C4890F900007C
:102580000A2190FBF1F000E01120C4B21BE0112CF5
:1025900008D1474890F900000A2190FBF1F201FBB5
:1025A000120000E01120C4B20DE0112C06D1404809
:1025B00090F900000A2190FBF1F000E01120C4B274
:1025C00001E08BE000BF00BF1E2D00D100252B468F
:1025D0003848009490F90020374890F900103748A7
:1025E00090F90000FFF71FFC79E0FFF70BFC34487F
:1025F00090F9000006286ED2DFE800F003121C26D6
:10260000303A304890F900202F4890F900102F48B8
:1026100090F90000FFF794FB5EE0AEE08AE060E036
:102620002B4B93F9022093F9011093F90000FFF767
:1026300087FB51E0264B93F9052093F9041093F999
:102640000300FFF77DFB47E0214B93F9082093F946
:10265000071093F90600FFF773FB3DE01C4B93F95D
:102660000B2093F90A1093F90900FFF769FB33E097
:10267000174B93F90E2093F90D1093F90C00FFF707
:102680005FFB29E08C812142A08601001A00002016
:102690001B00002016000020420000204100002006
:1026A000400000201E0000204B0000204A000020B7
:1026B000490000204800002047000020460000207C
:1026C0001C000020450000204400002043000020A2
:1026D000AC000020FFE700BF00BF00E000BF00BF6C
:1026E0004DE0FFF7A0FA274890F90000032190FB86
:1026F000F1F201FB120020B1012806D0022816D108
:102700000CE00320FFF74EFA12E01F480068FFF7C5
:10271000DCFA1E480088FFF797FA09E01C480068B9
:10272000FFF7D3FA19480088FFF78EFA00E000BFE0
:1027300000BF24E0FFF777FA124890F90000032168
:1027400090FBF1F201FB120020B1012806D0022813
:1027500010D10AE00320FFF725FA0CE00D480188AC
:102760000D480088FFF7D7F905E000F0E5F8FFF71E
:1027700069F900E000BF00BF01E000E000BF00BF5A
:1027800042E600001B000020000000200C0000209A
:10279000040000200A00002008000020234880696F
:1027A00040F04000214988612148006820F4700011
:1027B0002049C1F800080846D0F8000840F440104D
:1027C000C1F8000870472DE9F0410546C82105FB16
:1027D00001F701240026012017490860FEF704FED6
:1027E0001AE0164800686FEA00001549C1F8940124
:1027F0004FF0050000F0A6FA601C84B2322094FB72
:10280000F0F100FB114038B93046FEF7EDFD0EB98E
:10281000012000E00020C6B2BC42E2DB00200749F4
:1028200008600849C1F88C01BDE8F0810010024041
:1028300000180140001001408C8121429401234284
:1028400000002342008021420D48806940F00800CA
:102850000B4988610B48006820F470000A49C1F8F0
:10286000000C0846D0F8000C40F40000C1F8000C41
:102870000846D0F80C0C40F01000C1F80C0C704762
:1028800000100240000C014000000140F0B503467A
:102890000C461546642093FBF0F0C6B2642093FB0F
:1028A000F0F700FB1730C1B2132E02DD01F1640016
:1028B000C1B20846CF1701EB977701EBA7020720BB
:1028C00092FBF0F700FB172082B25719601EDFF869
:1028D00008C41CF80000384482B2CF1701EB977788
:1028E000BF10B1EB870703D1032C01DA501E82B26F
:1028F000072092FBF0F700FB1720C0B2F0BD0146A5
:10290000CA1701EB92729210B1EB820212D16420CD
:1029100091FBF0F200FB121050B94FF4C87091FB1C
:10292000F0F200FB121008B9012070470020FCE70C
:102930000120FAE70020F8E770B500260024002502
:10294000E64806884FEA0646E548B0F81C08064403
:10295000E448B6FBF0F4E4480088A0423AD0E249EB
:102960000C8040F2B2750EE02846FFF7C8FF30B188
:10297000B4F5B77F02D3A4F5B77402E006E0A4F281
:102980006D14681C85B2B4F5B67FEDD800BFD7488A
:102990000580002516E0D5490888FFF7B0FF30B163
:1029A000012D04D11D2C01D31D3C09E00CE0D048C1
:1029B000405DA04203D8CE48405D241A00E003E009
:1029C000681C85B21C2CE6D200BF681CC749488031
:1029D000601C4860C348B6FBF0F100FB11644FF483
:1029E0006160B4FBF0F0C14988604FF46160B4FBF2
:1029F000F0F100FB11403C21B0FBF1F0BB49C86095
:102A00004FF46160B4FBF0F100FB11403C21B0FBDE
:102A1000F1F201FB1200B54908610B465B68DAB2BE
:102A20000B465B88D9B2B14B1888FFF72FFFAF492F
:102A30000875002070BD2DE9F04F06460F46904600
:102A40009946DDE909AB002440F2B270864203DB0F
:102A500040F63300864202DD0120BDE8F08F40F2EF
:102A6000B2750AE02846FFF74AFF10B1A1480444B6
:102A700001E0A1480444681C85B2B542F2DB781E2F
:102A8000C7B2002510E09A48405D40F2A3214843B8
:102A900004EBC0143046FFF732FF18B1012D01D10D
:102AA00090480444681C85B2BD42ECDBA8F10100EB
:102AB00040F2A321484304EBC014C9EB4910C0EB1A
:102AC000092004EB0014CAEB0A1004EB80045C44F8
:102AD0008A48C06940F080508849C8610846C0698A
:102AE00040F00060C8618648006840F48070844906
:102AF00008608448008840F010007949A1F8040873
:102B000081490C804FEA14407549A1F8180808461D
:102B1000B0F8040820F01000A1F8040800BF7948BC
:102B2000008810F0200FFAD0FFF706FF002094E78E
:102B30001CB5002475480088A0F5A04150397ED00E
:102B40006E48C06940F080506C49C8610846C06951
:102B500040F00060C8616A48006840F480706849CD
:102B600008606648006A40F480306449086208469C
:102B7000006A20F4803008620846006A40F00100D4
:102B8000086204E0601CC4B20A2000F0DBF85B4875
:102B9000006A10F0020F01D1FA2CF3DBFA2C01DBF2
:102BA00001201CBD5548006A40F4807053490862FA
:102BB0000846006A40F40040086200BF514800889F
:102BC00010F0200FFAD000BF4E48008810F0080F18
:102BD000FAD04F48008840F001004149A1F80008B0
:102BE00000BF4848008810F0200FFAD04548008800
:102BF00040F010003A49A1F804084FF000004549A0
:102C0000088047F6FF703649A1F80C084FF03703EB
:102C10004FF03502CDE900234FF011034FF01802B9
:102C20004FF0040140F2E670FFF705FF2C48B0F8C2
:102C3000040820F010002A49A1F8040800E00AE086
:102C400000BF3048008810F0200FFAD045F2500045
:102C50002E49088012E000BF2A48008810F0080FB3
:102C6000FAD02B48008840F001001D49A1F8000867
:102C700000BF2448008810F0200FFAD0022303225E
:102C80000021084600F0B3F8FFF756FE002088E761
:102C900000B51C48008810F0010F01D0FFF74CFE72
:102CA0001848008810F0020F06D01648008820F05F
:102CB00002000B49A1F804081248008840F6FA7196
:102CC00000EA01000649A1F8040800BF0D48008889
:102CD00010F0200FFAD000BD3E4F00081828004029
:102CE000002000408051010056000020BC00002060
:102CF0004A4F00080085E2018033E10100100240E4
:102D000000700040042800401C280040046C004073
:102D100000280040082800404FF0E021096921F018
:102D200004014FF0E0221161C21700EB5272D21081
:102D30001F4B1A70194609784FF47A7251431D4A95
:102D40001180704701461B4A12884A434FF0E02326
:102D50005A6100229A6101221A6100BF4FF0E022FD
:102D6000106910F0010F02D010F4803FF6D000225D
:102D70004FF0E0231A619A61704701460C4A1278BD
:102D80004A434FF0E0235A6100229A6101221A61FE
:102D900000BF4FF0E022106910F0010F02D010F4D4
:102DA000803FF6D000224FF0E0231A619A6170470D
:102DB000580000205A000020B54A0A400243B54B93
:102DC0001A6070470146072323EA01021202B24B40
:102DD00018684FF6FF0300EA0300B04B40EA030017
:102DE00040EA02004FF0E023C3F80C0D70472DE9D4
:102DF000F0478046894614461D462046E11704EBFD
:102E000091714FEAA10AE11704EB91718910A4EBCB
:102E10008101CFB2042000EBC700C7B22846FFF7FC
:102E2000D1FFC5F1040008FA00F60F20284100EA9E
:102E30000900064306F00F06202C0CDA98480068BB
:102E40004FF0010101FA04F140EA01004FF0E021E6
:102E5000C1F800010DE093480068A4F120014FF093
:102E6000010202FA01F240EA02004FF0E021C1F84B
:102E700004018D4850F82A0006FA07F108438A49F0
:102E800041F82A00BDE8F08770B504460B46CE171E
:102E900001EB9676B010CE1701EB9676B610A1EB4B
:102EA0008606B606350E814B9B6943F001037F4EC3
:102EB000B3614FEAB63353F820300F26AE40B34328
:102EC0007B4E46F82030334653F8203004FA05F69E
:102ED0003343774E46F82030764B1E684FF001039F
:102EE00003FA01F346EA0306734BC3F80064734B1D
:102EF0001B684FF0010606FA01F643EA06036E4E20
:102F0000C6F8043412F0010F0AD06D4B1E684FF062
:102F1000010303FA01F346EA0306674BC3F80C64A6
:102F200012F0020F0AD0674B1E684FF0010303FA3C
:102F300001F346EA0306604BC3F8086470BD00B5B0
:102F400000205A490861C860142048610020886147
:102F5000C8610846006840F0010008600846406803
:102F60005949084051494860084600685749084097
:102F70004E4908600846006820F480200860084632
:102F8000406820F4FE0048600020886000214FF077
:102F90000060FFF711FF00BD10B54D48006840F01C
:102FA00004004FF0E021C1F8100D4048C06940F026
:102FB00080503E49C8614748406840F480704549A8
:102FC00048600846006840F0040008600846006851
:102FD00040F002000860FDF7DDF810BD2F48001D2D
:102FE0002D490860704701464906304A926942F00F
:102FF00001022E4B9A61304A526822F0E0622E4B59
:103000005A601A4652680A435A60704730B50446FF
:103010000025FFF794FF2548006840F480302349DD
:10302000086000BF21480068400CFBD04FF480606E
:103030001E494860A01EC4B20846406840EA844069
:1030400048600846406840F4803048602248006884
:1030500040F03200204908601448006840F0807059
:103060001249086000BF11480068400EFBD00F48AD
:10307000406840F002000D49486005E00B48406898
:10308000C0F3870505F00305022DF7D130BD000020
:1030900080FFFF1F08ED00E00CED00E00000FA05E6
:1030A00000E100E004E100E000E400E00010024084
:1030B00008000140000401400000014004040140F8
:1030C0000C040140080401400000FFF8FFFFF6FE79
:1030D00010ED00E00070004000200240014600BFFB
:1030E000704700BFFF4A128812F0400FFAD0C2B2F8
:1030F000FD4B1A8070472DE9F05F05460E46300102
:1031000001F03CFD8146F94905FB01F001F036FD77
:103110008246494601F050FC0746384601F00EFD54
:1031200084B2204601F02AFD8346394601F00DFEA7
:1031300082464FF0834101F035FD814601F0FEFCEF
:103140008046240104EB080084B2E948806940F01D
:103150000400E74988610846806940F4804088613E
:10316000E448006820F47F60E349C1F80408084699
:10317000D0F8040840F40B60C1F80408DC48C068CB
:1031800040F48040DA49C8600846C06820F48040B6
:10319000C860DA48A0F80848D948008842F20C0113
:1031A00040EA0100D549A1F80C080846B0F80C081F
:1031B00040F48070A1F80C080846B0F80C0840F004
:1031C0002000CF4908804FF002034FF025024FF056
:1031D00003010846FFF70BFEBDE8F09F0146002201
:1031E00000BF1046531CDAB2085C0028F9D1501E0B
:1031F000C0B270472DE9F04105460E4617463046ED
:10320000FFF7ECFF80460024B84502D00020BDE85F
:10321000F081002423E0285D40280DDD285D5B2837
:103220000ADA285D315D884206D0285D2030315DA4
:10323000884201D00020EAE7285D60280DDD285D86
:103240007B280ADA285D315D884206D0285D203867
:10325000315D884201D00020D9E7601CC4B2BC4275
:10326000D9DB0120D3E7F0B504460A46002300214C
:10327000002000BF26E0A34D6D5C202D08D0A14D9D
:103280006D5C03EB830605EB4605303DABB20CE00D
:103290004D1E9C4E755D202D07D01FB20546461C65
:1032A000F0B2994E26F815700023551E8D4207D1B5
:1032B0001FB20546461CF0B2934E26F81570002347
:1032C0004D1CE9B29142D6DBF0BD904B1870904B8B
:1032D0001970904B1A7070472DE9FC4704460D4653
:1032E00016461F46DDE90A8909F0FF0308F0FF02D0
:1032F000CDE90023FBB2F2B2E9B2A0B2FEF7E1F9E8
:103300008549086008460068FEF760F9BDE8FC875B
:103310007CB57448008810F0200F71D07248008886
:10332000C4B27E48007810F0800F2BD17B48007823
:1033300010F0400F0CD00A2C03D000207749087001
:1033400020E07648007840F080007449087019E069
:103350000D2C06D17148007840F040006F4908708C
:1033600010E06E48007800F03F0066490C546B484E
:103370000078401C69490870084600783F2801DD44
:10338000002008706548007810F0800F38D00020C9
:10339000634908606148007800F03F0061490870A7
:1033A0000846027860495748FFF724FF10B1002013
:1033B0005E4908705D480078E0BB00205C490870F9
:1033C00031E05B48007800EB8000574A143A02EB8A
:1033D0004001544802784B48FFF70CFF88B154482D
:1033E000007840B2534908705148007800EB8000E3
:1033F0004D4A143A02EB40014FA000F0ABFA18E03E
:1034000058E252480078401E49490978884205D15F
:103410004FA000F09FFA54A000F09CFA44480078B6
:10342000401C43490870424800784849097888425E
:10343000C7DB00BF3F4890F9000030B101281AD027
:1034400002284BD003284AD19EE14EA000F082FA18
:1034500058A000F07FFA63A000F07CFA6DA000F0A5
:1034600079FA78A000F076FA82A000F073FAFF20D3
:103470003049087016E22D48007848B989A000F05C
:1034800069FA8FA000F066FA01202849087068E107
:10349000244801781B48FFF7E6FE8E4908708EA08D
:1034A00000F058FA8B480078032803D08EA000F073
:1034B00051FA56E11448B0F90000002810DB124818
:1034C000B0F9020018280BDA0F48B0F90200002802
:1034D00006DB0D48B0F902003C2817E142E1E0E1CB
:1034E0003CE10000003801400438014040420F0038
:1034F000001002400408014000000140003001407B
:103500000C380140D40000201401002040000020AD
:1035100041000020420000205000002087000020D1
:10352000100000208D000020710000208600002087
:103530008C00002085000020BFAACABCD6B4D0D021
:10354000D6B8C1EEA3BA25730D0A00005C000020B6
:10355000C4FACAE4C8EBB5C4D6B8C1EEB2BBBACFA0
:10356000B7A8210D0A000000C7EBCAE4C8EB486504
:103570006C70B2E9BFB4CFE0B9D8B0EFD6FA0D0A9B
:1035800000000000B1BECFB5CDB3B9B2D3D035B8CD
:10359000F6B2CBB5A5A3ACC3BFB8F6B2CBB5A5D335
:1035A000D0B2BBCDACB5C4D2B3CAFD2A2A2A2A2ACE
:1035B0002A0D0A00BFC9D2D4CDA8B9FDD2D4CFC23A
:1035C000D6B8C1EEC0B4BFD8D6C6CFE0D3A6B9A690
:1035D000C4DC2A2A2A2A2A2A2A2A2A2A2A2A2A2AFF
:1035E0002A0D0A0053657454696D652D2D2D2D2DFE
:1035F0002D2D2D2D2D2D2D2D2D2D2D2D2D2D2D2DFB
:103600002DC9E8D6C3BCC6CAB1C6F7B5C4CAB1BCD9
:10361000E40D0A005175692D2D2D2D2D2D2D2D2DEB
:103620002DD6D5D6B9D0E8D2AAB4ABB2CEB5C4D6D1
:10363000B8C1EEA3ACBBD8B5BDB3F5CABCD7B4CC4A
:10364000AC0D0A00536574446174652D2D2D2D2D2C
:103650002D2D2D2D2D2D2D2D2D2D2D2D2D2D2D2D9A
:103660002D2D2D2D2DC9E8D6C3B5B1C7B0C8D5C6EF
:10367000DA0D0A003D3D3D3D3D3D3D3D3D3D3D3D7D
:103680003D3D3D3D3D3D3D3D3D3D3D3D3D3D3D3D6A
:103690003D3D3D3D3D3D3D3D3D3D3D3D3D3D3D3D5A
:1036A0003D0D0A00C7EBCAE4C8EBCAB1B7D6C3EBFD
:1036B000A3ACD2D4BFD5B8F1B8F4BFAA0D0A0000AC
:1036C000D1F9C0FDA3BA32332030322031310D0A96
:1036D000000000008E000020BDD3CAD5B5BDB2CE1B
:1036E000CAFD0D0A00000000CAE4C8EBB2CECAFD54
:1036F000B8F6CAFDB2BBC6A5C5E4A3ACC7EBD6D825
:10370000D0C2CAE4C8EB0D0A0000000026DA6A48FD
:10371000B0F90400002821DD6748B0F904003C2816
:103720001CDC002065490870634B9B885AB2624BD1
:103730005B8859B2604B1B8858B2FFF7C6FD6048E2
:1037400090F9000000EB80005E4A02EB40015EA0B1
:1037500000F000F9FF205A49087002E060A000F074
:10376000F9F89FE0002055490870554890F900008D
:1037700000EB8000534A02EB400153A000F0EAF84E
:10378000FF204F4908708DE04C48007848B95CA094
:1037900000F0E0F863A000F0DDF801204749087070
:1037A0007EE0674801786748FFF75DFD664908706D
:1037B000AFF2DC0000F0CEF863480078062804D0B1
:1037C000AFF2DC0000F0C6F86AE03B48B0F9000058
:1037D00040F2B271884260DD3748B0F9000040F62F
:1037E0003301884259DA3448B0F90200002854DD28
:1037F0003148B0F902000D284FDA2F48B0F9040023
:1038000000284ADD2C48B0F90400202845DA2A486F
:10381000B0F90600002840DB2748B0F90600182858
:103820003BDA2548B0F90800002836DB2248B0F919
:1038300008003C2831DA2048B0F90A0000282CDDC5
:103840001D48B0F90A003C2827DC00201B490870FD
:103850001948408943B21848008942B2164DCDE953
:103860000023ED886BB2144DAD886AB2124D6D889D
:1038700069B2114DB5F90000FFF72EFD104890F91F
:10388000000000EB80000F4A02EB40010EA000F0A8
:1038900061F8FF200A49087002E011A000F05AF810
:1038A00000E000BF00BFAFF2603000F053F800202E
:1038B000264908707CBD000014010020860000200D
:1038C000850000205D000020257320D6B8C1EED60B
:1038D000B4D0D0D6B8C1EECDEAB1CF0D0A00000009
:1038E000CAE4C8EBB5C4B2CECAFDB2BBBACFB7A862
:1038F0002CC7EBD6D8D0C2CAE4C8EB0D0A00000032
:10390000C7EBCAE4C8EBC4EAD4C2C8D5CAB1B7D6BB
:10391000C3EBA3ACD2D4BFD5B8F1B8F4BFAA0D0A9B
:1039200000000000D1F9C0FDA3BA32303232203598
:1039300020312031322030322031310D0A00000098
:103940008D000020D40000208E0000208700002081
:10395000704700000FB4044910B503AA029800F0A4
:1039600089F810BC5DF814FB880000202DE9F041B7
:1039700004460E4600200AE0E1682046884738B336
:10398000252806D0D4E901219047206A401C2062F6
:10399000F2E7E168204600278847050018D0A5F126
:1039A0004100192802D820354FF4006732462946D5
:1039B00020462760FCF7D4FB40B1012804D0F61D57
:1039C00026F007060836D7E7361DD5E72846D9E79B
:1039D000206ABDE8F08170B505460C46012A05D085
:1039E0002868800600D5EA69002302E0012305E08B
:1039F0005B1C934202D2E05C0028F9D1A869E6186A
:103A0000C01AA861286A184428622846AFF30080CB
:103A100004E0D5E9012114F8010B9047B442F8D332
:103A20002846AFF3008070BD7047704770477047FD
:103A300010B500F031F8006810BD10B5044600F074
:103A40002BF8046010BD10B5436913B1AFF30080CB
:103A500001E0FFF7C0FF012010BD126800F1240152
:103A60000A7000224A700122EDE711684FF0FF3220
:103A7000E9E70000074B70B50C467B4400F017F8EF
:103A80000546204600F026F810B14FF0FF3070BD1B
:103A9000284670BD65F6FFFF01487047704700BFBC
:103AA0002801002001694A1C02610878704700B5AE
:103AB0008FB0CDE901310021059105497944CDE967
:103AC000031011466846FFF751FF0FB000BD00001C
:103AD000E5FFFFFFC06800F08000704700487047B6
:103AE000280100207546FFF7F9FFAE46050069463C
:103AF000534620F00700854618B020B5FCF758FB68
:103B0000BDE820404FF000064FF000074FF00008DE
:103B10004FF0000B21F00701AC46ACE8C009ACE85F
:103B2000C009ACE8C009ACE8C0098D46704704463E
:103B3000AFF300802046FCF727FB000001487047E8
:103B4000704700BF2C0100202DE9F0414F1E00EB13
:103B5000C7010446D1E9000115461E4637F00602AA
:103B60000DD02A46334600F0A5FC7F1E04EBC703A8
:103B7000D3E9002300F026FA37F00602F1D1022F34
:103B800025D0042F13D0062F18BFBDE8F0812A4698
:103B9000334600F08FFCD4E90A2300F013FA2A46DA
:103BA000334600F087FCD4E9082300F00BFA2A46DC
:103BB000334600F07FFCD4E9062300F003FA2A46DE
:103BC000334600F077FCD4E9042300F0FBF92A46E1
:103BD000334600F06FFCD4E9022300F0F3F92A46E3
:103BE000334600F067FCD4E90023BDE8F04100F063
:103BF000E9B900002DE9F04DCB4B002492B0994279
:103C000005DA21F000429A4201D806D128B112B05B
:103C10000122BDE8F04D01F04AB9B1F5801F20DA6C
:103C200002430DD0002917DA0120FFF706FF12B07A
:103C30000022BDE8F04D13461046114600F07CBA54
:103C40000220FFF7FAFE12B00022BDE8F04D134645
:103C50001046B64900F070BA6FF03504362201F014
:103C600026F904EB2152C1F31308B149A2F2FF3344
:103C7000414401F4801282F07F6103EB225281F013
:103C80004051009241EA08010022AA4B00F01CFDBD
:103C9000044608F10200A84EC0F313000D467E440E
:103CA000032867D2D6E90023204600F09DFB1ED1F1
:103CB0000098002802BFD6E9000112B0BDE8F08DDF
:103CC00000F0CEFB04460D469C4A9D4B00F0F2FBF3
:103CD00006460F469B4A9C4B2046294600F0EAFBCD
:103CE00012B032463B46BDE8F04D00F06BB94FF0E4
:103CF0005532964B2046294600F0DCFB0022944BBF
:103D000000F0D6FC07460E4622462B4620462946A2
:103D100000F0D0FB3A46334600F0CCFB0646009854
:103D20000F46F0B100F09CFB80468A46834A844BE4
:103D300000F0C0FB32463B4600F0BAFC22462B4660
:103D400000F0C2FC04460D467E4A7F4B4046514679
:103D500000F0B0FB12B022462B46BDE8F04D00F05B
:103D6000B3BC0B4612B0324620462946BDE8F04DA2
:103D700000F0AABC00224FF08043204600F022F958
:103D800002460B462046294600F0D6F906460F4665
:103D9000009800F065FBCDE9040132463B46304611
:103DA000394600F087FB0C906A480A9108EB000244
:103DB00001920C9A0B46104600F07CFB82460246AC
:103DC00065488B46C8F151080B4608F5D7280321F2
:103DD0007844FFF7B9FE52465B4600F06BFB0E904D
:103DE0005E48089152465B4604217844FFF7ACFEDA
:103DF0000A9B0C9A00F05EFB019A089B42EA0808B5
:103E00000E9A00F0DFF883460991B8F1000F4EDDFD
:103E10004FF0FF322046294601F049F822462B4652
:103E200000F048FB804600988A4660B3DDE9040153
:103E3000424A434B00F03EFB0B9100905A464046ED
:103E40005146099B00F0BEF832463B4600F032FB7B
:103E50000B9B009A00F0B6F84246534600F028FC4F
:103E600022462B4600F030FC05460C46DDE90401F5
:103E7000344A354B00F01EFB12B02A462346BDE8FB
:103E8000F04D00F021BC5A464046099B00F09AF8DC
:103E900032463B4600F00EFB4246534600F008FC1B
:103EA00012B022462B46BDE8F04D00F001BC009850
:103EB00040B3DDE90401214A214B00F0FBFA8246C0
:103EC00088465A4620462946099B00F0FDFB3246AB
:103ED0003B4600F0EFFA5246434600F0F5FB22461F
:103EE0002B4600F0F1FB04460D46DDE90401154ABE
:103EF000154B00F0DFFA12B022462B46BDE8F04D1C
:103F000000F0E2BB0B465A462046294600F0DCFB97
:103F100032463B4600F0CEFA12B022462B46BDE8B0
:103F2000F04D00F0C5BB00000000F07F0000F0BFC6
:103F3000645F09000000F03FEE120000763C793526
:103F4000EF39EA3D0000E0FE422EE63F5555D53FF1
:103F50000000E03F86EBF9FF8411000082110000B1
:103F600021F00042A2F16052B2F5801F01F000433F
:103F700028BFD2F17F6C0BD95FEA001C43EAC20272
:103F800042EB507018BF704728BF20F00100704707
:103F9000B2F5801FBCBF184670474FEA410C1CF5B4
:103FA000001F02D2084600F0CBBE70B500F02CFB1B
:103FB00000000089FFF7F6BF4FF00040A0F5800039
:103FC0007047000010B591EA030F48BF83F000432B
:103FD00000F18283841A71EB030E05D2121943EBB0
:103FE0000E03001B61EB0E01DFF820C14FEA1154F4
:103FF000A4EB135E1CEA430F18BF9CEA445F71D028
:1040000023EA0C03DEF1200C21EA045143F480136F
:1040100032D322FA0EFC10EB0C0023FA0EFC41EB1B
:104020000C01CEF1200C03FA0CFC10EB0C0051F14A
:104030000001B1F5801FCEF1200C32D201EB04510A
:10404000BDE8104012FA0CF258BF7047401C38BF50
:104050005FEA420218BF7047002814BF20F0010039
:1040600041F100014FEA410313F5001F38BF7047CB
:10407000A1F1C04100F016BB012A43EB0302AEF1EF
:10408000200EDEF11F0C32BF4FF0000C23FA0EF3AE
:1040900010EB030041EB0451B4EB115FD0D0A1EB66
:1040A000045101F58011490801EB0451BDE81040AD
:1040B0005FEA30000CD350F1000038BF12FA0CFC5C
:1040C00006D1C9E7401C38BF5FEA4202CAD1C3E744
:1040D0004FEA410313F5001F38BF7047A1F1C041FB
:1040E00000F0E0BA9CEA445F08D0BDE8104011EA55
:1040F0005C0F04BF01F0004100207047BDE8104094
:1041000070B500F081FA00BF64FBBE3E0000E0FF26
:1041100002494FF0000000F098BE00BF0000F87F99
:10412000491058BFC1F140415B1058BFC3F1404333
:104130008B42EFF3008070472DE9C04130B4DFF8C7
:10414000A0C23CEA111418BF3CEA131400F0EC8042
:1041500081EA03051CEA111444EAD57418BF1CEA6D
:10416000131500F0C780A4EB05044FF0004545EAA5
:10417000C12145EAC32341EA505143EA525304F1B5
:104180007F74994204F500344FEAC0204FEAC222FE
:1041900008BF904200F09C804FEA13650FF2401672
:1041A000765D4FEA134506FB05F7C7F1807706FBFE
:1041B00007F74FEAD737A7FB03687642C8F5803880
:1041C000A7FB06CE38BFA8F1010807FB08E64FF0B1
:1041D000000EA6FB028CE6FB03CEDCF1000CCEF158
:1041E000004E38BFAEF1010EA6FB0C584FF0000791
:1041F0004FF00005E6FB0E87A1FB08C6A0FB07CE2B
:1042000016EB0E0645F10005E1FB076515F1E04EE2
:104210007EBFA4F580345FEA46066D4116F1800743
:1042200045F100054FEA17274FEA066647EA05679A
:10423000A6F1DE46B6F1805F4FEA15251FD9384654
:1042400024F0010C05EBC471BCF1FE6F01EB0C1105
:1042500002D8F0BCBDE8008124425CBF01F5801E9D
:104260009EEAC47F02D4F0BCBDE80081244238D469
:10427000F0BCA1F1C041BDE8004100F013BA4FEA23
:10428000D22242EA43524FEAD323A7FB02864FEAE7
:10429000D02040EA415007FB03661EEA0E0F4FEAAA
:1042A000D12105FB026658BFA6EB0056B6EB0056BF
:1042B0004FEA520E4EEAC37E18EB0E0E56EB530E2B
:1042C000BDD518EB02085E417F1C55F10005B6E72D
:1042D0004FF480154FF000074FF000064FF0000834
:1042E000ADE7F0BC4FF0000001F1C04101F000412A
:1042F000BDE8008111EA0C1F0CEA131500D00CE098
:1043000013EA0C1F00F025804FF00000F0BC81EA9A
:10431000030101F00041BDE80081F0BCBDE80041AF
:1043200081EA030100F0BEB9F0BCBDE8004170B500
:1043300000F06AF9097EFC3E00F007B881EA03014B
:104340004FF0000001F00041704781EA030100F0E6
:10435000A9B9F0BCBDE800414FF000002149704709
:10436000FFFDFBF9F7F5F4F2F0EEEDEBE9E8E6E43A
:10437000E3E1E0DEDDDBDAD8D7D5D4D3D1D0CFCDC1
:10438000CCCBCAC8C7C6C5C4C2C1C0BFBEBDBCBBFA
:10439000BAB9B8B7B6B5B4B3B2B1B0AFAEADACABF5
:1043A000AAA9A8A8A7A6A5A4A3A3A2A1A09F9F9ECF
:1043B0009D9C9C9B9A999998979796959594939381
:1043C000929191908F8F8E8E8D8C8C8B8B8A898918
:1043D000888887878685858484838382828181809B
:1043E0000000FF070000F87F51EA030C17D41CF50A
:1043F000801F58BFBCF5801F00F10680994218BF8E
:10440000704708BF9042704707D711F5801F58BF0B
:1044100013F5801F19D499427047894270471CF5E3
:10442000801F08D5BCF5801FF7D58B4218BF704799
:1044300008BF824270474FF4001C1CEB410F38BF8D
:104440001CEB430F01D28B42704770B500F0DCF8D3
:10445000922449004FF000514FF08053FFF760BEA7
:1044600010F0004248BF4042B0FA80F310FA03F166
:104470000AD0C3F11D0303F580634FEA415002EBFC
:10448000035202EBD12170474FF000007047B0FAA1
:1044900080F310FA03F10AD0C3F11D0303F5806322
:1044A0004FEA41504FEA035202EBD12170474FF0DF
:1044B00000007047DFF848C170B51CEA111E1EBF2E
:1044C0001CEA13159EEA0C0F95EA0C0F00F06F80A2
:1044D00081EA030423EA4C134EEAD47E21EA4C110C
:1044E00041F4801143F48013AE44A1FB024CA0FBC5
:1044F0000365AEF17F7E361955EB0C05A1FB034C2D
:104500004CF10003A0FB021C16EB0C06654153F1B5
:104510000003094218BF46F0010613F4007F0BD1D7
:104520004FEA03314FEA0530340341EA155140EABE
:1045300016506FF003020AE04FEAC3214FEAC5208C
:10454000F40241EA555140EA56506FF0020202EB84
:104550002E4201EB025585EACE710AD05FEA440C87
:1045600018BF24F0004450F1000041F1000120EA9E
:10457000D47040F2FE7C624500D270BDA84214BFE8
:104580004FF080444FF04044002E08BF0024BEF19D
:10459000806FA8BFA1F1C041BDE8704080F2828069
:1045A0004FF0000001F1C04101F0004170479EEA68
:1045B0000C0F0CEA131518BF95EA0C0F06D04FF03C
:1045C000000081EA030E0EF0004170BD00F01CF8FF
:1045D0008900013E00F007B800F009B84FEA430C2B
:1045E0005FEA5C5C08D081EA030100F05BB84FEA47
:1045F000410C5FEA5C5CF6D14FF000000149704766
:104600000000FF070000F87F0EF1020E2EF0030EEF
:104610005EF8046B364205D4012A43EB030515F519
:10462000001F12D8012841EB010C1CF5001F0CD80B
:104630000ED14FEAD17C15F5001F0CEB4C0C0CF1A0
:10464000020C08BF4CEBD37C04E04FF0080C01E0F7
:104650004FEAD37C0CEB4C0526FA05F606F007066C
:10466000B6F1040C06D20EEB860CBDE870404CF09F
:10467000010C6047DFE80CF0090B02024FF000412B
:104680004FF00000A1F5002170BD19461046012829
:1046900051EB010418BFD4F5001484BF002001F0D1
:1046A000004170BD0808A0F500114FEA31017047C4
:1046B00091EA030F10B581F000413FF58BAC83F018
:1046C000004300F009B8000010B591EA030F48BF9D
:1046D00083F000433FF57EAC841A71EB030E07D2E2
:1046E00012198EF0004E43EB0E03001B61EB0E011E
:1046F000DFF8A4C14FEA1154A4EB135E1CEA430F88
:1047000018BF9CEA445F00F0B08023EA6C03524279
:1047100021EA0451C3EB6C0338BF5B1EDEF1200CB1
:1047200025D322FA0EFC10EB0C0043FA0EFC41EBF1
:104730000C01CEF1200C03FA0CFC10EB0C0051F133
:104740000001CEF1200C29D401EB0451BDE810404A
:1047500012FA0CF258BF7047401C1CBFB2F1004F58
:10476000704700280CBF491C20F00100704712EB75
:10477000020C43EB030218BF4FF0010C4CEA42025B
:10478000AEF1200EDEF11E0C54D943FA0EFC10EBF4
:104790000C0051F1FF31CEF11E0CD5D50CF1010CFE
:1047A00012FA0CFC404141EB010101EB445E5FEA6F
:1047B0005E5E10D901EB0451BDE8104010EBDC70D7
:1047C00038BFBCF1004F18BF704700280CBF491C10
:1047D00020F00100704730D24FEAD42E11F50011BD
:1047E00024F400641BD0B1FA81F20B3AA41AA41E7F
:1047F000D2F12003914030FA03F31943904001EBCA
:10480000CE71002C01EB0451BDE81040A8BF7047E9
:1048100001F1C0414FF0000001F000417047B0FAD3
:1048200080F310FA03F100D110BDE41A173C4805DB
:10483000C90AE4E701EB045110BD491001EB045132
:10484000BDE810404FEA300002E04FF00001704731
:104850004A0008BF0042F8D0B2F5001F28BF7047D9
:1048600001F000414FF0000070479CEA445F07D020
:10487000BDE8104011EA5C0F04BF00210020704722
:10488000BDE8104070B5FFF7BFFE00BF40DFF63E49
:1048900083F00041104670470000E0FF43004FEAFC
:1048A000D30C4FEA3C0C43401FBF40070CF1605152
:1048B00013F0FE4F70471CF0006F03D100200CF086
:1048C000004170470CF0004343EA507010B540EAD5
:1048D000CC0000F0E8F900BF000000924FEA0001B0
:1048E000FFF7E0BE4FF000414FF00000A1F50021BE
:1048F0007047000090EA010F48BF81F0004100F1CD
:104900003682421A3CBF801A89184FEAD0524FF0C3
:104910007F4C1CEA410FA2EBD15318BF9CEA026FF7
:1049200000F03B804FF0004C4CEA00204CEA0121A3
:1049300021FA03FC10EB0C0C1ED202F1FF325FEAED
:104940001C2040EBC25038BF70471CF07F0F4FEA6D
:10495000400C18BFBCF17F4F38BF7047C3F1200334
:10496000994008BF20F00100BCF17F4F38BF70476D
:10497000A0F1C04000F0E4B94FEA3C00000A40EB6F
:10498000C25028BF1CF0FF0F4FEA400CE6D018BF02
:10499000BCF17F4F38BF7047EAE79CEA026F05D051
:1049A00010EA5C0F08BF00F00040704710B500F03F
:1049B0007AF900BF64FBBE3E4FF47F0C1CEAD012B4
:1049C0001EBF1CEAD11392EA0C0F93EA0C0F00F001
:1049D000858090EA010F48BF42F4807240F4000CD9
:1049E00041F400002CF07F4120F07F4000B581426F
:1049F000A2EB03020FF2081CACEB504EC0F100001A
:104A00009EF800E04FEA4E0E00FB0EFC38BF490056
:104A10004FEA2C1C02F5FA020CFB0EF34FEACE1EF5
:104A20004FEA112C4FEAC1210EEB635E42EB2242AA
:104A30000EFB0CFC4FEA1C5300FB03114FEA112C38
:104A40004FEA01310EFB0CFC4FEADC4C00FB0C1171
:104A5000C14228BF09184CEB03335DF804EB10EB9F
:104A6000410143EBC250B2F57C0F38BF704729D5E6
:104A700012F0F00F1CBF00F1C04000F00040704782
:104A8000008182838485868788898B8C8D8E8F9127
:104A90009293959697999A9C9D9FA0A2A3A5A7A84B
:104AA000AAACAEB0B2B3B5B7B9BCBEC0C2C5C7C977
:104AB000CCCED1D4D7D9DCDFE2E6E9ECF0F3F7FADB
:104AC000FE0000004FEA400C0CF1807CBCF17E4FF0
:104AD00028BF7047B0F1C04000F032B990EA010F32
:104AE0000CEAD11348BF42F48072624538BF634577
:104AF00007D213F47F0F16D080EA010000F00040C7
:104B0000704710B500F0CFF8097EFC3E00F005B804
:104B100080EA010000F00040704780EA010000F0E8
:104B2000004000F00DB912F47F0F04BF0248704737
:104B300080EA010000F004B90000C07FC10DD1F18E
:104B40009E0206DB4FEA002343F0004323FA02F003
:104B50007047004207D54FEA4001B1F1FE4F02D243
:104B60004FF00000704710B500F09DF84992248086
:104B7000002070476FEA200070470000B0FA80F311
:104B800010FA03F2C3F19D030AD0D90501EB1220FC
:104B9000530638BF704700F1010008BF20F0010044
:104BA000704700004FF47F0C1CEAD0121EBF1CEAB5
:104BB000D11392EA0C0F93EA0C0F00F0478090EAB1
:104BC000010F48BF42F480724FF0004C4CEA0020C5
:104BD0004CEA012102EB0302A0FB0113A2F5000243
:104BE000002918BF43F001035B0028BF4FEA3303DD
:104BF00042EB22425FEA132C4CEBC2502EBFBCEBBF
:104C0000436FB2F57C0F70474FEA036CBCF1004F65
:104C100008BF20F00100B2F57C0F38BF70470BD5FC
:104C200082F0FF0212F5803FC8BF704700F1C0401C
:104C3000D8BF00F00040704700F5000C5FEA4C0C54
:104C400048BF7047B0F1C04000F07AB890EA010F59
:104C50000CEAD11348BF42F48072624538BF634505
:104C600004D280EA010000F00040704710B500F067
:104C70001AF800BF8900013E00F007B800F009B83B
:104C80005FEA410C5FEA1C6C08D080EA010000F08A
:104C900057B85FEA400C5FEA1C6CF6D14FF0004059
:104CA000A0F5800070470EF1020E2EF0030E5EF8A4
:104CB000044B244204D44FEA4102B2F17F4F11D891
:104CC0004FEA4003B3F17F4F0CD80ED14FEAD07CAE
:104CD000B2F17F4F0CEB4C0C0CF1020C08BF4CEB0B
:104CE000D17C04E04FF0080C01E04FEAD17C0CEBE2
:104CF0004C0324FA03F404F00704B4F1040C06D2C4
:104D00000EEB840CBDE810404CF0010C6047DFE86E
:104D10000CF0070802024FF00040A0F5800010BD23
:104D20000846420018BFD2F1807288BF00F00040F0
:104D300010BD10B5FEF702FF4FF00001016010BD7D
:104D4000FF2141EAD050C005704780F0004090EA52
:104D5000010F7FF5D6AD81F0004100F008B80000EA
:104D600090EA010F48BF81F000413FF5CAAD421AF9
:104D700004D882F00042A0EB020011444FEAD05266
:104D80004FF07F4C1CEA410FA2EBD15318BF9CEAB5
:104D9000026F4AD04FF0004C4CEA00204CEA01214F
:104DA00021FA03FCB0EB0C0C0FD412F0FE0F36D03E
:104DB0005FEA4C001DD5001240EBC25038BF70476F
:104DC0001CF03F0F18BF70470BE0A2F101025FEA31
:104DD0001C2040EBC25038BF70471CF07F0F18BF3B
:104DE0007047C3F12003994014BF401E20F001001A
:104DF000704780084FEA122308BF7047B0FA80FC62
:104E0000A2EB0C02CCF1280C60FA0CF093EA122F02
:104E100004BF00EBC25070474FEAC3707047130ADB
:104E20005FEADC1008BF7047F6E79CEA026F04D027
:104E300010EA5C0F08BF0020704710B5FFF733FF82
:104E400040DFF63E81F0004070470CF00F03092B65
:104E500008BF082000F05B800A2B0BD0082B18BF7E
:104E6000704708BF1CF0400F0AD04FF000004FF011
:104E7000000170471CF0400F18BF4FF00040704712
:104E80001CF0100F08D020F0704300F07F4242EA7F
:104E9000D3014FEA4370704700F0604021F07F4239
:104EA00042EA000201F07F4040EA727070474FF022
:104EB000FF0C4CF4E06C1CEA11531CBF9CEA030C81
:104EC0009445C2BFDA4201EB02517047002B0DD06E
:104ED000BCF1000F0FD0002A01F00041A4BF41F047
:104EE000E04141F07F614FF00000704701F0004168
:104EF0004FF00000704750EA01334FF09B0C18BF91
:104F00004CF0806C7FF404A9AFF3008070471CF470
:104F1000801F11D01CF4E02F03D06FEACC31490080
:104F200070474FF04050EFF3008222F0704242EAA7
:104F3000000282F3008870474FF0000070470003C2
:104F4000030601040602050003051F1C1F1E1F1E89
:104F50001F1F1E1F1E1F000004FA97999999D93F21
:104F6000AF788E1DC571CC3F9FC678D0099AC33FDC
:104F7000935555555555E53F599322942449D23FB1
:104F8000DE03CB966446C73F44523EDF12F1C23F78
:104F90000000000000000000B84F000800000020E2
:104FA00094000000280100084C50000894000020E4
:104FB000F4020000440100080000000000000000AE
:104FC00007000000000000000000000000000000DA
:104FD000000001010000000000003F065B4F666D0D
:104FE0007D077F6F777C395E79714000BF86DBCFAC
:104FF000E6EDFD87FFEF000000000000000000006C
:10500000140000000000000000000000000000008C
:10501000000000000448656C7000000000000053B0
:10502000657454696D650000005175697400000075
:1050300000000053657444617465000000FF0000C7
:0C50400000000000000000000000000064
:04000005080000ED02
:00000001FF
